{
  "_format": "hh-sol-artifact-1",
  "contractName": "Aliens",
  "sourceName": "contracts/Aliens.sol",
  "abi": [
    {
      "inputs": [
        {
          "internalType": "string",
          "name": "_name",
          "type": "string"
        },
        {
          "internalType": "string",
          "name": "_symbol",
          "type": "string"
        }
      ],
      "stateMutability": "nonpayable",
      "type": "constructor"
    },
    {
      "anonymous": false,
      "inputs": [
        {
          "indexed": false,
          "internalType": "address",
          "name": "owner",
          "type": "address"
        },
        {
          "indexed": false,
          "internalType": "uint256",
          "name": "tokenId",
          "type": "uint256"
        }
      ],
      "name": "Mint",
      "type": "event"
    },
    {
      "anonymous": false,
      "inputs": [
        {
          "indexed": true,
          "internalType": "address",
          "name": "from",
          "type": "address"
        },
        {
          "indexed": true,
          "internalType": "address",
          "name": "to",
          "type": "address"
        },
        {
          "indexed": false,
          "internalType": "uint256",
          "name": "tokenId",
          "type": "uint256"
        }
      ],
      "name": "Transfer",
      "type": "event"
    },
    {
      "inputs": [
        {
          "internalType": "string",
          "name": "_tokenName",
          "type": "string"
        },
        {
          "internalType": "string",
          "name": "_tokenDescription",
          "type": "string"
        },
        {
          "internalType": "string",
          "name": "_tokenImage",
          "type": "string"
        },
        {
          "internalType": "uint256",
          "name": "_tokenPrice",
          "type": "uint256"
        }
      ],
      "name": "mint",
      "outputs": [],
      "stateMutability": "nonpayable",
      "type": "function"
    },
    {
      "inputs": [],
      "name": "name",
      "outputs": [
        {
          "internalType": "string",
          "name": "",
          "type": "string"
        }
      ],
      "stateMutability": "view",
      "type": "function"
    },
    {
      "inputs": [
        {
          "internalType": "uint256",
          "name": "",
          "type": "uint256"
        }
      ],
      "name": "ownerOf",
      "outputs": [
        {
          "internalType": "address",
          "name": "",
          "type": "address"
        }
      ],
      "stateMutability": "view",
      "type": "function"
    },
    {
      "inputs": [
        {
          "internalType": "bytes4",
          "name": "interfaceId",
          "type": "bytes4"
        }
      ],
      "name": "supportsInterface",
      "outputs": [
        {
          "internalType": "bool",
          "name": "",
          "type": "bool"
        }
      ],
      "stateMutability": "pure",
      "type": "function"
    },
    {
      "inputs": [],
      "name": "symbol",
      "outputs": [
        {
          "internalType": "string",
          "name": "",
          "type": "string"
        }
      ],
      "stateMutability": "view",
      "type": "function"
    },
    {
      "inputs": [
        {
          "internalType": "uint256",
          "name": "",
          "type": "uint256"
        }
      ],
      "name": "tokenDescription",
      "outputs": [
        {
          "internalType": "string",
          "name": "",
          "type": "string"
        }
      ],
      "stateMutability": "view",
      "type": "function"
    },
    {
      "inputs": [
        {
          "internalType": "uint256",
          "name": "_tokenId",
          "type": "uint256"
        }
      ],
      "name": "tokenIdToDescription",
      "outputs": [
        {
          "internalType": "string",
          "name": "",
          "type": "string"
        }
      ],
      "stateMutability": "view",
      "type": "function"
    },
    {
      "inputs": [
        {
          "internalType": "uint256",
          "name": "_tokenId",
          "type": "uint256"
        }
      ],
      "name": "tokenIdToName",
      "outputs": [
        {
          "internalType": "string",
          "name": "",
          "type": "string"
        }
      ],
      "stateMutability": "view",
      "type": "function"
    },
    {
      "inputs": [
        {
          "internalType": "uint256",
          "name": "_tokenId",
          "type": "uint256"
        }
      ],
      "name": "tokenIdToOwnerOf",
      "outputs": [
        {
          "internalType": "address",
          "name": "",
          "type": "address"
        }
      ],
      "stateMutability": "view",
      "type": "function"
    },
    {
      "inputs": [
        {
          "internalType": "uint256",
          "name": "_tokenId",
          "type": "uint256"
        }
      ],
      "name": "tokenIdToPrice",
      "outputs": [
        {
          "internalType": "uint256",
          "name": "",
          "type": "uint256"
        }
      ],
      "stateMutability": "view",
      "type": "function"
    },
    {
      "inputs": [
        {
          "internalType": "uint256",
          "name": "",
          "type": "uint256"
        }
      ],
      "name": "tokenImage",
      "outputs": [
        {
          "internalType": "string",
          "name": "",
          "type": "string"
        }
      ],
      "stateMutability": "view",
      "type": "function"
    },
    {
      "inputs": [
        {
          "internalType": "uint256",
          "name": "",
          "type": "uint256"
        }
      ],
      "name": "tokenName",
      "outputs": [
        {
          "internalType": "string",
          "name": "",
          "type": "string"
        }
      ],
      "stateMutability": "view",
      "type": "function"
    },
    {
      "inputs": [
        {
          "internalType": "uint256",
          "name": "",
          "type": "uint256"
        }
      ],
      "name": "tokenPrice",
      "outputs": [
        {
          "internalType": "uint256",
          "name": "",
          "type": "uint256"
        }
      ],
      "stateMutability": "view",
      "type": "function"
    },
    {
      "inputs": [],
      "name": "totalSupply",
      "outputs": [
        {
          "internalType": "uint256",
          "name": "",
          "type": "uint256"
        }
      ],
      "stateMutability": "view",
      "type": "function"
    },
    {
      "inputs": [
        {
          "internalType": "address",
          "name": "_to",
          "type": "address"
        },
        {
          "internalType": "uint256",
          "name": "_tokenId",
          "type": "uint256"
        }
      ],
      "name": "transfer",
      "outputs": [],
      "stateMutability": "nonpayable",
      "type": "function"
    }
  ],
  "bytecode": "0x60806040523480156200001157600080fd5b506040516200187f3803806200187f83398181016040528101906200003791906200019b565b81600090805190602001906200004f92919062000079565b5080600190805190602001906200006892919062000079565b50600060078190555050506200037e565b8280546200008790620002a3565b90600052602060002090601f016020900481019282620000ab5760008555620000f7565b82601f10620000c657805160ff1916838001178555620000f7565b82800160010185558215620000f7579182015b82811115620000f6578251825591602001919060010190620000d9565b5b5090506200010691906200010a565b5090565b5b80821115620001255760008160009055506001016200010b565b5090565b6000620001406200013a8462000237565b6200020e565b9050828152602081018484840111156200015957600080fd5b620001668482856200026d565b509392505050565b600082601f8301126200018057600080fd5b81516200019284826020860162000129565b91505092915050565b60008060408385031215620001af57600080fd5b600083015167ffffffffffffffff811115620001ca57600080fd5b620001d8858286016200016e565b925050602083015167ffffffffffffffff811115620001f657600080fd5b62000204858286016200016e565b9150509250929050565b60006200021a6200022d565b9050620002288282620002d9565b919050565b6000604051905090565b600067ffffffffffffffff8211156200025557620002546200033e565b5b62000260826200036d565b9050602081019050919050565b60005b838110156200028d57808201518184015260208101905062000270565b838111156200029d576000848401525b50505050565b60006002820490506001821680620002bc57607f821691505b60208210811415620002d357620002d26200030f565b5b50919050565b620002e4826200036d565b810181811067ffffffffffffffff821117156200030657620003056200033e565b5b80604052505050565b7f4e487b7100000000000000000000000000000000000000000000000000000000600052602260045260246000fd5b7f4e487b7100000000000000000000000000000000000000000000000000000000600052604160045260246000fd5b6000601f19601f8301169050919050565b6114f1806200038e6000396000f3fe608060405234801561001057600080fd5b50600436106100f55760003560e01c8063a0c6d53711610097578063d4ddce8a11610066578063d4ddce8a146102ac578063da2bfdb1146102dc578063e725f8771461030c578063f4812eb91461033c576100f5565b8063a0c6d53714610200578063a9059cbb14610230578063c8df11661461024c578063cf3484251461027c576100f5565b806331b6475c116100d357806331b6475c1461016657806334d22d39146101825780636352211e146101b257806395d89b41146101e2576100f5565b806301ffc9a7146100fa57806306fdde031461012a57806318160ddd14610148575b600080fd5b610114600480360381019061010f9190610e09565b61036c565b604051610121919061103c565b60405180910390f35b6101326103ce565b60405161013f9190611057565b60405180910390f35b61015061045c565b60405161015d91906110f9565b60405180910390f35b610180600480360381019061017b9190610e32565b610462565b005b61019c60048036038101906101979190610edd565b610615565b6040516101a99190610ff8565b60405180910390f35b6101cc60048036038101906101c79190610edd565b610652565b6040516101d99190610ff8565b60405180910390f35b6101ea610685565b6040516101f79190611057565b60405180910390f35b61021a60048036038101906102159190610edd565b610713565b6040516102279190611057565b60405180910390f35b61024a60048036038101906102459190610dcd565b6107b3565b005b61026660048036038101906102619190610edd565b6109c4565b6040516102739190611057565b60405180910390f35b61029660048036038101906102919190610edd565b610a69565b6040516102a39190611057565b60405180910390f35b6102c660048036038101906102c19190610edd565b610b09565b6040516102d391906110f9565b60405180910390f35b6102f660048036038101906102f19190610edd565b610b21565b6040516103039190611057565b60405180910390f35b61032660048036038101906103219190610edd565b610bc6565b6040516103339190611057565b60405180910390f35b61035660048036038101906103519190610edd565b610c66565b60405161036391906110f9565b60405180910390f35b60006380ac58cd60e01b827bffffffffffffffffffffffffffffffffffffffffffffffffffffffff191614806103c75750635b5e139f60e01b827bffffffffffffffffffffffffffffffffffffffffffffffffffffffff1916145b9050919050565b600080546103db9061123c565b80601f01602080910402602001604051908101604052809291908181526020018280546104079061123c565b80156104545780601f1061042957610100808354040283529160200191610454565b820191906000526020600020905b81548152906001019060200180831161043757829003601f168201915b505050505081565b60075481565b3373ffffffffffffffffffffffffffffffffffffffff163373ffffffffffffffffffffffffffffffffffffffff16146104d0576040517f08c379a00000000000000000000000000000000000000000000000000000000081526004016104c790611079565b60405180910390fd5b600760008154809291906104e39061129f565b91905055503360026000600754815260200190815260200160002060006101000a81548173ffffffffffffffffffffffffffffffffffffffff021916908373ffffffffffffffffffffffffffffffffffffffff160217905550836003600060075481526020019081526020016000209080519060200190610565929190610c83565b5082600460006007548152602001908152602001600020908051906020019061058f929190610c83565b508160056000600754815260200190815260200160002090805190602001906105b9929190610c83565b5080600660006007548152602001908152602001600020819055507f0f6798a560793a54c3bcfe86a93cde1e73087d944c0ea20544137d412139688533600754604051610607929190611013565b60405180910390a150505050565b60006002600083815260200190815260200160002060009054906101000a900473ffffffffffffffffffffffffffffffffffffffff169050919050565b60026020528060005260406000206000915054906101000a900473ffffffffffffffffffffffffffffffffffffffff1681565b600180546106929061123c565b80601f01602080910402602001604051908101604052809291908181526020018280546106be9061123c565b801561070b5780601f106106e05761010080835404028352916020019161070b565b820191906000526020600020905b8154815290600101906020018083116106ee57829003601f168201915b505050505081565b600460205280600052604060002060009150905080546107329061123c565b80601f016020809104026020016040519081016040528092919081815260200182805461075e9061123c565b80156107ab5780601f10610780576101008083540402835291602001916107ab565b820191906000526020600020905b81548152906001019060200180831161078e57829003601f168201915b505050505081565b3373ffffffffffffffffffffffffffffffffffffffff166002600083815260200190815260200160002060009054906101000a900473ffffffffffffffffffffffffffffffffffffffff1673ffffffffffffffffffffffffffffffffffffffff1614610854576040517f08c379a000000000000000000000000000000000000000000000000000000000815260040161084b90611099565b60405180910390fd5b600073ffffffffffffffffffffffffffffffffffffffff168273ffffffffffffffffffffffffffffffffffffffff1614156108c4576040517f08c379a00000000000000000000000000000000000000000000000000000000081526004016108bb906110d9565b60405180910390fd5b600754811115610909576040517f08c379a0000000000000000000000000000000000000000000000000000000008152600401610900906110b9565b60405180910390fd5b816002600083815260200190815260200160002060006101000a81548173ffffffffffffffffffffffffffffffffffffffff021916908373ffffffffffffffffffffffffffffffffffffffff1602179055508173ffffffffffffffffffffffffffffffffffffffff163373ffffffffffffffffffffffffffffffffffffffff167fddf252ad1be2c89b69c2b068fc378daa952ba7f163c4a11628f55a4df523b3ef836040516109b891906110f9565b60405180910390a35050565b60606004600083815260200190815260200160002080546109e49061123c565b80601f0160208091040260200160405190810160405280929190818152602001828054610a109061123c565b8015610a5d5780601f10610a3257610100808354040283529160200191610a5d565b820191906000526020600020905b815481529060010190602001808311610a4057829003601f168201915b50505050509050919050565b60056020528060005260406000206000915090508054610a889061123c565b80601f0160208091040260200160405190810160405280929190818152602001828054610ab49061123c565b8015610b015780601f10610ad657610100808354040283529160200191610b01565b820191906000526020600020905b815481529060010190602001808311610ae457829003601f168201915b505050505081565b60066020528060005260406000206000915090505481565b6060600360008381526020019081526020016000208054610b419061123c565b80601f0160208091040260200160405190810160405280929190818152602001828054610b6d9061123c565b8015610bba5780601f10610b8f57610100808354040283529160200191610bba565b820191906000526020600020905b815481529060010190602001808311610b9d57829003601f168201915b50505050509050919050565b60036020528060005260406000206000915090508054610be59061123c565b80601f0160208091040260200160405190810160405280929190818152602001828054610c119061123c565b8015610c5e5780601f10610c3357610100808354040283529160200191610c5e565b820191906000526020600020905b815481529060010190602001808311610c4157829003601f168201915b505050505081565b600060066000838152602001908152602001600020549050919050565b828054610c8f9061123c565b90600052602060002090601f016020900481019282610cb15760008555610cf8565b82601f10610cca57805160ff1916838001178555610cf8565b82800160010185558215610cf8579182015b82811115610cf7578251825591602001919060010190610cdc565b5b509050610d059190610d09565b5090565b5b80821115610d22576000816000905550600101610d0a565b5090565b6000610d39610d3484611139565b611114565b905082815260208101848484011115610d5157600080fd5b610d5c8482856111fa565b509392505050565b600081359050610d7381611476565b92915050565b600081359050610d888161148d565b92915050565b600082601f830112610d9f57600080fd5b8135610daf848260208601610d26565b91505092915050565b600081359050610dc7816114a4565b92915050565b60008060408385031215610de057600080fd5b6000610dee85828601610d64565b9250506020610dff85828601610db8565b9150509250929050565b600060208284031215610e1b57600080fd5b6000610e2984828501610d79565b91505092915050565b60008060008060808587031215610e4857600080fd5b600085013567ffffffffffffffff811115610e6257600080fd5b610e6e87828801610d8e565b945050602085013567ffffffffffffffff811115610e8b57600080fd5b610e9787828801610d8e565b935050604085013567ffffffffffffffff811115610eb457600080fd5b610ec087828801610d8e565b9250506060610ed187828801610db8565b91505092959194509250565b600060208284031215610eef57600080fd5b6000610efd84828501610db8565b91505092915050565b610f0f81611186565b82525050565b610f1e81611198565b82525050565b6000610f2f8261116a565b610f398185611175565b9350610f49818560208601611209565b610f5281611375565b840191505092915050565b6000610f6a602483611175565b9150610f7582611386565b604082019050919050565b6000610f8d602383611175565b9150610f98826113d5565b604082019050919050565b6000610fb0601583611175565b9150610fbb82611424565b602082019050919050565b6000610fd3601f83611175565b9150610fde8261144d565b602082019050919050565b610ff2816111f0565b82525050565b600060208201905061100d6000830184610f06565b92915050565b60006040820190506110286000830185610f06565b6110356020830184610fe9565b9392505050565b60006020820190506110516000830184610f15565b92915050565b600060208201905081810360008301526110718184610f24565b905092915050565b6000602082019050818103600083015261109281610f5d565b9050919050565b600060208201905081810360008301526110b281610f80565b9050919050565b600060208201905081810360008301526110d281610fa3565b9050919050565b600060208201905081810360008301526110f281610fc6565b9050919050565b600060208201905061110e6000830184610fe9565b92915050565b600061111e61112f565b905061112a828261126e565b919050565b6000604051905090565b600067ffffffffffffffff82111561115457611153611346565b5b61115d82611375565b9050602081019050919050565b600081519050919050565b600082825260208201905092915050565b6000611191826111d0565b9050919050565b60008115159050919050565b60007fffffffff0000000000000000000000000000000000000000000000000000000082169050919050565b600073ffffffffffffffffffffffffffffffffffffffff82169050919050565b6000819050919050565b82818337600083830152505050565b60005b8381101561122757808201518184015260208101905061120c565b83811115611236576000848401525b50505050565b6000600282049050600182168061125457607f821691505b6020821081141561126857611267611317565b5b50919050565b61127782611375565b810181811067ffffffffffffffff8211171561129657611295611346565b5b80604052505050565b60006112aa826111f0565b91507fffffffffffffffffffffffffffffffffffffffffffffffffffffffffffffffff8214156112dd576112dc6112e8565b5b600182019050919050565b7f4e487b7100000000000000000000000000000000000000000000000000000000600052601160045260246000fd5b7f4e487b7100000000000000000000000000000000000000000000000000000000600052602260045260246000fd5b7f4e487b7100000000000000000000000000000000000000000000000000000000600052604160045260246000fd5b6000601f19601f8301169050919050565b7f4f6e6c79206d73672e73656e6465722063616e206d696e74206e657720746f6b60008201527f656e732e00000000000000000000000000000000000000000000000000000000602082015250565b7f4f6e6c7920746865206f776e65722063616e207472616e7366657220746f6b6560008201527f6e732e0000000000000000000000000000000000000000000000000000000000602082015250565b7f546f6b656e20646f6573206e6f742065786973742e0000000000000000000000600082015250565b7f43616e6e6f74207472616e7366657220746f2061646472657373203078302e00600082015250565b61147f81611186565b811461148a57600080fd5b50565b611496816111a4565b81146114a157600080fd5b50565b6114ad816111f0565b81146114b857600080fd5b5056fea2646970667358221220c640e91722793babb400a7b769aa7ad2d9bb9d67464bda02d7d0e0f78b5c29b164736f6c63430008020033",
  "linkReferences": {},
  "deployedLinkReferences": {}
}